:100000000C942A000C9447000C9447000C94470071
:100010000C9447000C9447000C9447000C94470044
:100020000C9447000C9447000C9447000C94470034
:100030000C9447000C9447000C9447000C94470024
:100040000C9447000C9447000C9447000C94470014
:100050000C94470011241FBECFE5D8E0DEBFCDBF12
:1000600010E0A0E6B0E0EAEAF2E002C005900D92EE
:10007000A037B107D9F720E0A0E7B0E001C01D929A
:10008000A237B207E1F70E9446010C9453010C9489
:1000900000008F988E988D988C98C39AC49A80B3DC
:1000A000829581708599826086998460879988603D
:1000B0008295807FC498C49A90B3929591708599E7
:1000C00092608699946087999860C498892B089566
:1000D000C2980E94490008958F9A8E9A8D9A8C9AA0
:1000E000C398C49A982F92959F7090FF02C0949ADB
:1000F00001C0949891FF02C0959A01C0959892FF13
:1001000002C0969A01C09698987011F0979A01C013
:100110009798C498C49A80FF02C0949A01C094989A
:1001200081FF02C0959A01C0959882FF02C0969AFD
:1001300001C0969883FF02C0979A01C09798C4980F
:100140000E9468008823E4F30895C2980E946C001E
:100150000895C29A0E946C00089580937100609384
:100160007000843098F466238CF060317CF4823027
:1001700031F0833031F0813029F488E203C080E12E
:1001800001C080E56058860F0E94A5000895CF93B6
:10019000C82F80917100843080F4609170006623D4
:1001A00064F0603154F40E94AD008C2F8058883088
:1001B00008F4C7708C2F0E94A900809170008F5F97
:1001C00080937000CF910895CF93DF93EC018991D4
:1001D000882329F00E94C70089918111FBCFDF910C
:1001E000CF910895109271001092700081E00E94EA
:1001F000A50008958F9A8E9A8D9A8C9ABA9ABC9A75
:10020000BB9AC29AC49AC39A85EA9EE00197F1F715
:1002100000C00000C498C298C398C49A949A959A52
:1002200096989798C49880E094E00197F1F700C001
:100230000000C49A949A959A96989798C49891E2D7
:100240009A95F1F70000C49A949A959A969897987F
:10025000C49881E28A95F1F70000C49A9498959A1F
:1002600096989798C49891E29A95F1F7000088E2E1
:100270000E94A50088E00E94A5008CE00E94A500D5
:1002800086E00E94A5000E94F20008950E94FA00F4
:100290000E94F20060E080E00E94AD0080E690E005
:0A02A0000E94E400FFCFF894FFCFA6
:1002AA004B4C494B4E494A204D4E4945212121008C
:00000001FF
