S0190000737465726F776E696B206C6364347831362E73726563BF
S113000012C024C023C022C021C020C01FC01EC0F3
S11300101DC01CC01BC01AC019C018C017C016C010
S113002015C014C013C011241FBECFE5D4E0DEBF39
S1130030CDBF10E0A0E6B0E0ECE5F2E002C0059030
S11300400D92AC36B107D9F7F9D006C1D9CF8B9A46
S11300508C9A8D9A8E9A84FF02C0939A01C09398C9
S113006085FF02C0949A01C0949886FF02C0959AB5
S113007001C09598882314F4969A01C09698929892
S1130080662311F0909A01C09098919800000000A6
S113009000000000929A0000000000000000929806
S11300A0000000000000000080FF02C0939A01C01D
S11300B0939881FF02C0949A01C0949882FF02C071
S11300C0959A01C0959883FF02C0969A01C09698AC
S11300D00000000000000000929A000000000000F0
S11300E00000929800000000000000008B988C989B
S11300F08D988E989098919A969A0000000000002E
S11301000000929A000000000000000080B3929862
S11301100000000000000000929A000000000000AF
S113012000000000000000000000929886FDE5CF6A
S1130130089585E49EE10197F1F700C00000889AD4
S1130140899A8A9A8B9A8C9A8D9A8E9A9298909878
S11301509198939A949A95989698000000000000BC
S11301600000929A00000000000000009298000035
S113017000000000000083EC99E00197F1F700C053
S113018000000000000000000000929A000000003F
S1130190000000009298000000000000000083EFBF
S11301A091E00197F1F700C000000000000000009A
S11301B00000929A000000000000000092980000E5
S11301C000000000000083EF91E00197F1F700C008
S11301D0000093980000000000000000929A0000C4
S11301E000000000000092980000000000000000E1
S11301F09AE19A95F1F700C060E088E228DF60E0B8
S113020088E025DF60E081E022DF60E086E01FDF38
S113021008951F93CF93DF93EC018881882351F0D5
S113022010E01F5F61E013DFFE01E10FF11D80812B
S11302308111F7CFDF91CF911F9108957ADF60E0AC
S11302408CE005DF60E081E002DF60E080E8FFDE53
S10F025080E690E0DEDFFFCFF894FFCFE3
S10F025C205465726D6F6D657472200093
S9030000FC
